{
	"contracts/HelloWorld.sol": {
		"Client": {
			"abi": [
				{
					"inputs": [
						{
							"internalType": "bytes32",
							"name": "_salt",
							"type": "bytes32"
						}
					],
					"name": "UseNewKeyword",
					"outputs": [
						{
							"internalType": "uint256",
							"name": "",
							"type": "uint256"
						}
					],
					"stateMutability": "nonpayable",
					"type": "function"
				}
			],
			"devdoc": {
				"kind": "dev",
				"methods": {},
				"version": 1
			},
			"evm": {
				"assembly": "    /* \"contracts/HelloWorld.sol\":284:640  contract Client {\r... */\n  mstore(0x40, 0x80)\n  callvalue\n  dup1\n  iszero\n  tag_1\n  jumpi\n  0x00\n  dup1\n  revert\ntag_1:\n  pop\n  dataSize(sub_0)\n  dup1\n  dataOffset(sub_0)\n  0x00\n  codecopy\n  0x00\n  return\nstop\n\nsub_0: assembly {\n        /* \"contracts/HelloWorld.sol\":284:640  contract Client {\r... */\n      mstore(0x40, 0x80)\n      callvalue\n      dup1\n      iszero\n      tag_1\n      jumpi\n      0x00\n      dup1\n      revert\n    tag_1:\n      pop\n      jumpi(tag_2, lt(calldatasize, 0x04))\n      shr(0xe0, calldataload(0x00))\n      dup1\n      0x69dbb27b\n      eq\n      tag_3\n      jumpi\n    tag_2:\n      0x00\n      dup1\n      revert\n        /* \"contracts/HelloWorld.sol\":307:637  function UseNewKeyword(bytes32 _salt) public returns (uint) {\r... */\n    tag_3:\n      tag_4\n      0x04\n      dup1\n      calldatasize\n      sub\n      dup2\n      add\n      swap1\n      tag_5\n      swap2\n      swap1\n      tag_6\n      jump\t// in\n    tag_5:\n      tag_7\n      jump\t// in\n    tag_4:\n      mload(0x40)\n      tag_8\n      swap2\n      swap1\n      tag_9\n      jump\t// in\n    tag_8:\n      mload(0x40)\n      dup1\n      swap2\n      sub\n      swap1\n      return\n    tag_7:\n        /* \"contracts/HelloWorld.sol\":361:365  uint */\n      0x00\n        /* \"contracts/HelloWorld.sol\":528:544  HelloWorld myObj */\n      dup1\n        /* \"contracts/HelloWorld.sol\":570:575  _salt */\n      dup3\n        /* \"contracts/HelloWorld.sol\":547:578  (new HelloWorld){salt: _salt}() */\n      mload(0x40)\n      tag_11\n      swap1\n      tag_12\n      jump\t// in\n    tag_11:\n      dup2\n      swap1\n      mload(0x40)\n      dup1\n      swap2\n      sub\n      swap1\n      0x00\n      create2\n      swap1\n      pop\n      dup1\n      iszero\n      dup1\n      iszero\n      tag_13\n      jumpi\n      returndatasize\n      0x00\n      dup1\n      returndatacopy\n      revert(0x00, returndatasize)\n    tag_13:\n      pop\n        /* \"contracts/HelloWorld.sol\":528:578  HelloWorld myObj = (new HelloWorld){salt: _salt}() */\n      swap1\n      pop\n        /* \"contracts/HelloWorld.sol\":584:589  myObj */\n      dup1\n        /* \"contracts/HelloWorld.sol\":584:598  myObj.setValue */\n      0xffffffffffffffffffffffffffffffffffffffff\n      and\n      0x55241077\n        /* \"contracts/HelloWorld.sol\":599:601  10 */\n      0x0a\n        /* \"contracts/HelloWorld.sol\":584:602  myObj.setValue(10) */\n      mload(0x40)\n      dup3\n      0xffffffff\n      and\n      0xe0\n      shl\n      dup2\n      mstore\n      0x04\n      add\n      tag_14\n      swap2\n      swap1\n      tag_15\n      jump\t// in\n    tag_14:\n      0x00\n      mload(0x40)\n      dup1\n      dup4\n      sub\n      dup2\n      0x00\n      dup8\n      dup1\n      extcodesize\n      iszero\n      dup1\n      iszero\n      tag_16\n      jumpi\n      0x00\n      dup1\n      revert\n    tag_16:\n      pop\n      gas\n      call\n      iszero\n      dup1\n      iszero\n      tag_18\n      jumpi\n      returndatasize\n      0x00\n      dup1\n      returndatacopy\n      revert(0x00, returndatasize)\n    tag_18:\n      pop\n      pop\n      pop\n      pop\n        /* \"contracts/HelloWorld.sol\":615:620  myObj */\n      dup1\n        /* \"contracts/HelloWorld.sol\":615:629  myObj.getValue */\n      0xffffffffffffffffffffffffffffffffffffffff\n      and\n      0x20965255\n        /* \"contracts/HelloWorld.sol\":615:631  myObj.getValue() */\n      mload(0x40)\n      dup2\n      0xffffffff\n      and\n      0xe0\n      shl\n      dup2\n      mstore\n      0x04\n      add\n      0x20\n      mload(0x40)\n      dup1\n      dup4\n      sub\n      dup2\n      dup7\n      dup1\n      extcodesize\n      iszero\n      dup1\n      iszero\n      tag_19\n      jumpi\n      0x00\n      dup1\n      revert\n    tag_19:\n      pop\n      gas\n      staticcall\n      iszero\n      dup1\n      iszero\n      tag_21\n      jumpi\n      returndatasize\n      0x00\n      dup1\n      returndatacopy\n      revert(0x00, returndatasize)\n    tag_21:\n      pop\n      pop\n      pop\n      pop\n      mload(0x40)\n      returndatasize\n      not(0x1f)\n      0x1f\n      dup3\n      add\n      and\n      dup3\n      add\n      dup1\n      0x40\n      mstore\n      pop\n      dup2\n      add\n      swap1\n      tag_22\n      swap2\n      swap1\n      tag_23\n      jump\t// in\n    tag_22:\n        /* \"contracts/HelloWorld.sol\":608:631  return myObj.getValue() */\n      swap2\n      pop\n      pop\n        /* \"contracts/HelloWorld.sol\":307:637  function UseNewKeyword(bytes32 _salt) public returns (uint) {\r... */\n      swap2\n      swap1\n      pop\n      jump\t// out\n    tag_12:\n      dataSize(sub_0)\n      dup1\n      dataOffset(sub_0)\n      dup4\n      codecopy\n      add\n      swap1\n      jump\t// out\n        /* \"#utility.yul\":7:146   */\n    tag_25:\n        /* \"#utility.yul\":53:58   */\n      0x00\n        /* \"#utility.yul\":91:97   */\n      dup2\n        /* \"#utility.yul\":78:98   */\n      calldataload\n        /* \"#utility.yul\":69:98   */\n      swap1\n      pop\n        /* \"#utility.yul\":107:140   */\n      tag_27\n        /* \"#utility.yul\":134:139   */\n      dup2\n        /* \"#utility.yul\":107:140   */\n      tag_28\n      jump\t// in\n    tag_27:\n        /* \"#utility.yul\":7:146   */\n      swap3\n      swap2\n      pop\n      pop\n      jump\t// out\n        /* \"#utility.yul\":152:295   */\n    tag_29:\n        /* \"#utility.yul\":209:214   */\n      0x00\n        /* \"#utility.yul\":240:246   */\n      dup2\n        /* \"#utility.yul\":234:247   */\n      mload\n        /* \"#utility.yul\":225:247   */\n      swap1\n      pop\n        /* \"#utility.yul\":256:289   */\n      tag_31\n        /* \"#utility.yul\":283:288   */\n      dup2\n        /* \"#utility.yul\":256:289   */\n      tag_32\n      jump\t// in\n    tag_31:\n        /* \"#utility.yul\":152:295   */\n      swap3\n      swap2\n      pop\n      pop\n      jump\t// out\n        /* \"#utility.yul\":301:630   */\n    tag_6:\n        /* \"#utility.yul\":360:366   */\n      0x00\n        /* \"#utility.yul\":409:411   */\n      0x20\n        /* \"#utility.yul\":397:406   */\n      dup3\n        /* \"#utility.yul\":388:395   */\n      dup5\n        /* \"#utility.yul\":384:407   */\n      sub\n        /* \"#utility.yul\":380:412   */\n      slt\n        /* \"#utility.yul\":377:496   */\n      iszero\n      tag_34\n      jumpi\n        /* \"#utility.yul\":415:494   */\n      tag_35\n      tag_36\n      jump\t// in\n    tag_35:\n        /* \"#utility.yul\":377:496   */\n    tag_34:\n        /* \"#utility.yul\":535:536   */\n      0x00\n        /* \"#utility.yul\":560:613   */\n      tag_37\n        /* \"#utility.yul\":605:612   */\n      dup5\n        /* \"#utility.yul\":596:602   */\n      dup3\n        /* \"#utility.yul\":585:594   */\n      dup6\n        /* \"#utility.yul\":581:603   */\n      add\n        /* \"#utility.yul\":560:613   */\n      tag_25\n      jump\t// in\n    tag_37:\n        /* \"#utility.yul\":550:613   */\n      swap2\n      pop\n        /* \"#utility.yul\":506:623   */\n      pop\n        /* \"#utility.yul\":301:630   */\n      swap3\n      swap2\n      pop\n      pop\n      jump\t// out\n        /* \"#utility.yul\":636:987   */\n    tag_23:\n        /* \"#utility.yul\":706:712   */\n      0x00\n        /* \"#utility.yul\":755:757   */\n      0x20\n        /* \"#utility.yul\":743:752   */\n      dup3\n        /* \"#utility.yul\":734:741   */\n      dup5\n        /* \"#utility.yul\":730:753   */\n      sub\n        /* \"#utility.yul\":726:758   */\n      slt\n        /* \"#utility.yul\":723:842   */\n      iszero\n      tag_39\n      jumpi\n        /* \"#utility.yul\":761:840   */\n      tag_40\n      tag_36\n      jump\t// in\n    tag_40:\n        /* \"#utility.yul\":723:842   */\n    tag_39:\n        /* \"#utility.yul\":881:882   */\n      0x00\n        /* \"#utility.yul\":906:970   */\n      tag_41\n        /* \"#utility.yul\":962:969   */\n      dup5\n        /* \"#utility.yul\":953:959   */\n      dup3\n        /* \"#utility.yul\":942:951   */\n      dup6\n        /* \"#utility.yul\":938:960   */\n      add\n        /* \"#utility.yul\":906:970   */\n      tag_29\n      jump\t// in\n    tag_41:\n        /* \"#utility.yul\":896:970   */\n      swap2\n      pop\n        /* \"#utility.yul\":852:980   */\n      pop\n        /* \"#utility.yul\":636:987   */\n      swap3\n      swap2\n      pop\n      pop\n      jump\t// out\n        /* \"#utility.yul\":993:1142   */\n    tag_42:\n        /* \"#utility.yul\":1089:1135   */\n      tag_44\n        /* \"#utility.yul\":1129:1134   */\n      dup2\n        /* \"#utility.yul\":1089:1135   */\n      tag_45\n      jump\t// in\n    tag_44:\n        /* \"#utility.yul\":1084:1087   */\n      dup3\n        /* \"#utility.yul\":1077:1136   */\n      mstore\n        /* \"#utility.yul\":993:1142   */\n      pop\n      pop\n      jump\t// out\n        /* \"#utility.yul\":1148:1266   */\n    tag_46:\n        /* \"#utility.yul\":1235:1259   */\n      tag_48\n        /* \"#utility.yul\":1253:1258   */\n      dup2\n        /* \"#utility.yul\":1235:1259   */\n      tag_49\n      jump\t// in\n    tag_48:\n        /* \"#utility.yul\":1230:1233   */\n      dup3\n        /* \"#utility.yul\":1223:1260   */\n      mstore\n        /* \"#utility.yul\":1148:1266   */\n      pop\n      pop\n      jump\t// out\n        /* \"#utility.yul\":1272:1512   */\n    tag_15:\n        /* \"#utility.yul\":1374:1378   */\n      0x00\n        /* \"#utility.yul\":1412:1414   */\n      0x20\n        /* \"#utility.yul\":1401:1410   */\n      dup3\n        /* \"#utility.yul\":1397:1415   */\n      add\n        /* \"#utility.yul\":1389:1415   */\n      swap1\n      pop\n        /* \"#utility.yul\":1425:1505   */\n      tag_51\n        /* \"#utility.yul\":1502:1503   */\n      0x00\n        /* \"#utility.yul\":1491:1500   */\n      dup4\n        /* \"#utility.yul\":1487:1504   */\n      add\n        /* \"#utility.yul\":1478:1484   */\n      dup5\n        /* \"#utility.yul\":1425:1505   */\n      tag_42\n      jump\t// in\n    tag_51:\n        /* \"#utility.yul\":1272:1512   */\n      swap3\n      swap2\n      pop\n      pop\n      jump\t// out\n        /* \"#utility.yul\":1518:1740   */\n    tag_9:\n        /* \"#utility.yul\":1611:1615   */\n      0x00\n        /* \"#utility.yul\":1649:1651   */\n      0x20\n        /* \"#utility.yul\":1638:1647   */\n      dup3\n        /* \"#utility.yul\":1634:1652   */\n      add\n        /* \"#utility.yul\":1626:1652   */\n      swap1\n      pop\n        /* \"#utility.yul\":1662:1733   */\n      tag_53\n        /* \"#utility.yul\":1730:1731   */\n      0x00\n        /* \"#utility.yul\":1719:1728   */\n      dup4\n        /* \"#utility.yul\":1715:1732   */\n      add\n        /* \"#utility.yul\":1706:1712   */\n      dup5\n        /* \"#utility.yul\":1662:1733   */\n      tag_46\n      jump\t// in\n    tag_53:\n        /* \"#utility.yul\":1518:1740   */\n      swap3\n      swap2\n      pop\n      pop\n      jump\t// out\n        /* \"#utility.yul\":1827:1904   */\n    tag_56:\n        /* \"#utility.yul\":1864:1871   */\n      0x00\n        /* \"#utility.yul\":1893:1898   */\n      dup2\n        /* \"#utility.yul\":1882:1898   */\n      swap1\n      pop\n        /* \"#utility.yul\":1827:1904   */\n      swap2\n      swap1\n      pop\n      jump\t// out\n        /* \"#utility.yul\":1910:1987   */\n    tag_49:\n        /* \"#utility.yul\":1947:1954   */\n      0x00\n        /* \"#utility.yul\":1976:1981   */\n      dup2\n        /* \"#utility.yul\":1965:1981   */\n      swap1\n      pop\n        /* \"#utility.yul\":1910:1987   */\n      swap2\n      swap1\n      pop\n      jump\t// out\n        /* \"#utility.yul\":1993:2115   */\n    tag_45:\n        /* \"#utility.yul\":2052:2061   */\n      0x00\n        /* \"#utility.yul\":2085:2109   */\n      tag_60\n        /* \"#utility.yul\":2103:2108   */\n      dup3\n        /* \"#utility.yul\":2085:2109   */\n      tag_49\n      jump\t// in\n    tag_60:\n        /* \"#utility.yul\":2072:2109   */\n      swap1\n      pop\n        /* \"#utility.yul\":1993:2115   */\n      swap2\n      swap1\n      pop\n      jump\t// out\n        /* \"#utility.yul\":2244:2361   */\n    tag_36:\n        /* \"#utility.yul\":2353:2354   */\n      0x00\n        /* \"#utility.yul\":2350:2351   */\n      dup1\n        /* \"#utility.yul\":2343:2355   */\n      revert\n        /* \"#utility.yul\":2367:2489   */\n    tag_28:\n        /* \"#utility.yul\":2440:2464   */\n      tag_65\n        /* \"#utility.yul\":2458:2463   */\n      dup2\n        /* \"#utility.yul\":2440:2464   */\n      tag_56\n      jump\t// in\n    tag_65:\n        /* \"#utility.yul\":2433:2438   */\n      dup2\n        /* \"#utility.yul\":2430:2465   */\n      eq\n        /* \"#utility.yul\":2420:2483   */\n      tag_66\n      jumpi\n        /* \"#utility.yul\":2479:2480   */\n      0x00\n        /* \"#utility.yul\":2476:2477   */\n      dup1\n        /* \"#utility.yul\":2469:2481   */\n      revert\n        /* \"#utility.yul\":2420:2483   */\n    tag_66:\n        /* \"#utility.yul\":2367:2489   */\n      pop\n      jump\t// out\n        /* \"#utility.yul\":2495:2617   */\n    tag_32:\n        /* \"#utility.yul\":2568:2592   */\n      tag_68\n        /* \"#utility.yul\":2586:2591   */\n      dup2\n        /* \"#utility.yul\":2568:2592   */\n      tag_49\n      jump\t// in\n    tag_68:\n        /* \"#utility.yul\":2561:2566   */\n      dup2\n        /* \"#utility.yul\":2558:2593   */\n      eq\n        /* \"#utility.yul\":2548:2611   */\n      tag_69\n      jumpi\n        /* \"#utility.yul\":2607:2608   */\n      0x00\n        /* \"#utility.yul\":2604:2605   */\n      dup1\n        /* \"#utility.yul\":2597:2609   */\n      revert\n        /* \"#utility.yul\":2548:2611   */\n    tag_69:\n        /* \"#utility.yul\":2495:2617   */\n      pop\n      jump\t// out\n    stop\n\n    sub_0: assembly {\n            /* \"contracts/HelloWorld.sol\":70:280  contract HelloWorld {\r... */\n          mstore(0x40, 0x80)\n          callvalue\n          dup1\n          iszero\n          tag_1\n          jumpi\n          0x00\n          dup1\n          revert\n        tag_1:\n          pop\n          dataSize(sub_0)\n          dup1\n          dataOffset(sub_0)\n          0x00\n          codecopy\n          0x00\n          return\n        stop\n\n        sub_0: assembly {\n                /* \"contracts/HelloWorld.sol\":70:280  contract HelloWorld {\r... */\n              mstore(0x40, 0x80)\n              callvalue\n              dup1\n              iszero\n              tag_1\n              jumpi\n              0x00\n              dup1\n              revert\n            tag_1:\n              pop\n              jumpi(tag_2, lt(calldatasize, 0x04))\n              shr(0xe0, calldataload(0x00))\n              dup1\n              0x20965255\n              eq\n              tag_3\n              jumpi\n              dup1\n              0x55241077\n              eq\n              tag_4\n              jumpi\n            tag_2:\n              0x00\n              dup1\n              revert\n                /* \"contracts/HelloWorld.sol\":124:201  function getValue() public view returns (uint) {\r... */\n            tag_3:\n              tag_5\n              tag_6\n              jump\t// in\n            tag_5:\n              mload(0x40)\n              tag_7\n              swap2\n              swap1\n              tag_8\n              jump\t// in\n            tag_7:\n              mload(0x40)\n              dup1\n              swap2\n              sub\n              swap1\n              return\n                /* \"contracts/HelloWorld.sol\":207:277  function setValue(uint _value) public {\r... */\n            tag_4:\n              tag_9\n              0x04\n              dup1\n              calldatasize\n              sub\n              dup2\n              add\n              swap1\n              tag_10\n              swap2\n              swap1\n              tag_11\n              jump\t// in\n            tag_10:\n              tag_12\n              jump\t// in\n            tag_9:\n              stop\n                /* \"contracts/HelloWorld.sol\":124:201  function getValue() public view returns (uint) {\r... */\n            tag_6:\n                /* \"contracts/HelloWorld.sol\":165:169  uint */\n              0x00\n                /* \"contracts/HelloWorld.sol\":186:195  simpleInt */\n              dup1\n              sload\n                /* \"contracts/HelloWorld.sol\":179:195  return simpleInt */\n              swap1\n              pop\n                /* \"contracts/HelloWorld.sol\":124:201  function getValue() public view returns (uint) {\r... */\n              swap1\n              jump\t// out\n                /* \"contracts/HelloWorld.sol\":207:277  function setValue(uint _value) public {\r... */\n            tag_12:\n                /* \"contracts/HelloWorld.sol\":264:270  _value */\n              dup1\n                /* \"contracts/HelloWorld.sol\":252:261  simpleInt */\n              0x00\n                /* \"contracts/HelloWorld.sol\":252:270  simpleInt = _value */\n              dup2\n              swap1\n              sstore\n              pop\n                /* \"contracts/HelloWorld.sol\":207:277  function setValue(uint _value) public {\r... */\n              pop\n              jump\t// out\n                /* \"#utility.yul\":7:146   */\n            tag_16:\n                /* \"#utility.yul\":53:58   */\n              0x00\n                /* \"#utility.yul\":91:97   */\n              dup2\n                /* \"#utility.yul\":78:98   */\n              calldataload\n                /* \"#utility.yul\":69:98   */\n              swap1\n              pop\n                /* \"#utility.yul\":107:140   */\n              tag_18\n                /* \"#utility.yul\":134:139   */\n              dup2\n                /* \"#utility.yul\":107:140   */\n              tag_19\n              jump\t// in\n            tag_18:\n                /* \"#utility.yul\":7:146   */\n              swap3\n              swap2\n              pop\n              pop\n              jump\t// out\n                /* \"#utility.yul\":152:481   */\n            tag_11:\n                /* \"#utility.yul\":211:217   */\n              0x00\n                /* \"#utility.yul\":260:262   */\n              0x20\n                /* \"#utility.yul\":248:257   */\n              dup3\n                /* \"#utility.yul\":239:246   */\n              dup5\n                /* \"#utility.yul\":235:258   */\n              sub\n                /* \"#utility.yul\":231:263   */\n              slt\n                /* \"#utility.yul\":228:347   */\n              iszero\n              tag_21\n              jumpi\n                /* \"#utility.yul\":266:345   */\n              tag_22\n              tag_23\n              jump\t// in\n            tag_22:\n                /* \"#utility.yul\":228:347   */\n            tag_21:\n                /* \"#utility.yul\":386:387   */\n              0x00\n                /* \"#utility.yul\":411:464   */\n              tag_24\n                /* \"#utility.yul\":456:463   */\n              dup5\n                /* \"#utility.yul\":447:453   */\n              dup3\n                /* \"#utility.yul\":436:445   */\n              dup6\n                /* \"#utility.yul\":432:454   */\n              add\n                /* \"#utility.yul\":411:464   */\n              tag_16\n              jump\t// in\n            tag_24:\n                /* \"#utility.yul\":401:464   */\n              swap2\n              pop\n                /* \"#utility.yul\":357:474   */\n              pop\n                /* \"#utility.yul\":152:481   */\n              swap3\n              swap2\n              pop\n              pop\n              jump\t// out\n                /* \"#utility.yul\":487:605   */\n            tag_25:\n                /* \"#utility.yul\":574:598   */\n              tag_27\n                /* \"#utility.yul\":592:597   */\n              dup2\n                /* \"#utility.yul\":574:598   */\n              tag_28\n              jump\t// in\n            tag_27:\n                /* \"#utility.yul\":569:572   */\n              dup3\n                /* \"#utility.yul\":562:599   */\n              mstore\n                /* \"#utility.yul\":487:605   */\n              pop\n              pop\n              jump\t// out\n                /* \"#utility.yul\":611:833   */\n            tag_8:\n                /* \"#utility.yul\":704:708   */\n              0x00\n                /* \"#utility.yul\":742:744   */\n              0x20\n                /* \"#utility.yul\":731:740   */\n              dup3\n                /* \"#utility.yul\":727:745   */\n              add\n                /* \"#utility.yul\":719:745   */\n              swap1\n              pop\n                /* \"#utility.yul\":755:826   */\n              tag_30\n                /* \"#utility.yul\":823:824   */\n              0x00\n                /* \"#utility.yul\":812:821   */\n              dup4\n                /* \"#utility.yul\":808:825   */\n              add\n                /* \"#utility.yul\":799:805   */\n              dup5\n                /* \"#utility.yul\":755:826   */\n              tag_25\n              jump\t// in\n            tag_30:\n                /* \"#utility.yul\":611:833   */\n              swap3\n              swap2\n              pop\n              pop\n              jump\t// out\n                /* \"#utility.yul\":920:997   */\n            tag_28:\n                /* \"#utility.yul\":957:964   */\n              0x00\n                /* \"#utility.yul\":986:991   */\n              dup2\n                /* \"#utility.yul\":975:991   */\n              swap1\n              pop\n                /* \"#utility.yul\":920:997   */\n              swap2\n              swap1\n              pop\n              jump\t// out\n                /* \"#utility.yul\":1126:1243   */\n            tag_23:\n                /* \"#utility.yul\":1235:1236   */\n              0x00\n                /* \"#utility.yul\":1232:1233   */\n              dup1\n                /* \"#utility.yul\":1225:1237   */\n              revert\n                /* \"#utility.yul\":1249:1371   */\n            tag_19:\n                /* \"#utility.yul\":1322:1346   */\n              tag_38\n                /* \"#utility.yul\":1340:1345   */\n              dup2\n                /* \"#utility.yul\":1322:1346   */\n              tag_28\n              jump\t// in\n            tag_38:\n                /* \"#utility.yul\":1315:1320   */\n              dup2\n                /* \"#utility.yul\":1312:1347   */\n              eq\n                /* \"#utility.yul\":1302:1365   */\n              tag_39\n              jumpi\n                /* \"#utility.yul\":1361:1362   */\n              0x00\n                /* \"#utility.yul\":1358:1359   */\n              dup1\n                /* \"#utility.yul\":1351:1363   */\n              revert\n                /* \"#utility.yul\":1302:1365   */\n            tag_39:\n                /* \"#utility.yul\":1249:1371   */\n              pop\n              jump\t// out\n\n            auxdata: 0xa2646970667358221220b23d8ad7fd2ac460ce503931b7d33d9ab66d4fb222599cd95e871c11485c741464736f6c63430008070033\n        }\n    }\n\n    auxdata: 0xa264697066735822122050eab1655502228eb8b9b18273092958ac5a2483b38e9526e2e99f24389095f164736f6c63430008070033\n}\n",
				"bytecode": {
					"linkReferences": {},
					"object": "608060405234801561001057600080fd5b50610469806100206000396000f3fe608060405234801561001057600080fd5b506004361061002b5760003560e01c806369dbb27b14610030575b600080fd5b61004a600480360381019061004591906101bc565b610060565b604051610057919061024f565b60405180910390f35b6000808260405161007090610185565b8190604051809103906000f5905080158015610090573d6000803e3d6000fd5b5090508073ffffffffffffffffffffffffffffffffffffffff166355241077600a6040518263ffffffff1660e01b81526004016100cd9190610234565b600060405180830381600087803b1580156100e757600080fd5b505af11580156100fb573d6000803e3d6000fd5b505050508073ffffffffffffffffffffffffffffffffffffffff1663209652556040518163ffffffff1660e01b815260040160206040518083038186803b15801561014557600080fd5b505afa158015610159573d6000803e3d6000fd5b505050506040513d601f19601f8201168201806040525081019061017d91906101e9565b915050919050565b610170806102c483390190565b6000813590506101a181610295565b92915050565b6000815190506101b6816102ac565b92915050565b6000602082840312156101d2576101d1610290565b5b60006101e084828501610192565b91505092915050565b6000602082840312156101ff576101fe610290565b5b600061020d848285016101a7565b91505092915050565b61021f8161027e565b82525050565b61022e81610274565b82525050565b60006020820190506102496000830184610216565b92915050565b60006020820190506102646000830184610225565b92915050565b6000819050919050565b6000819050919050565b600061028982610274565b9050919050565b600080fd5b61029e8161026a565b81146102a957600080fd5b50565b6102b581610274565b81146102c057600080fd5b5056fe608060405234801561001057600080fd5b50610150806100206000396000f3fe608060405234801561001057600080fd5b50600436106100365760003560e01c8063209652551461003b5780635524107714610059575b600080fd5b610043610075565b60405161005091906100d9565b60405180910390f35b610073600480360381019061006e919061009d565b61007e565b005b60008054905090565b8060008190555050565b60008135905061009781610103565b92915050565b6000602082840312156100b3576100b26100fe565b5b60006100c184828501610088565b91505092915050565b6100d3816100f4565b82525050565b60006020820190506100ee60008301846100ca565b92915050565b6000819050919050565b600080fd5b61010c816100f4565b811461011757600080fd5b5056fea2646970667358221220b23d8ad7fd2ac460ce503931b7d33d9ab66d4fb222599cd95e871c11485c741464736f6c63430008070033a264697066735822122050eab1655502228eb8b9b18273092958ac5a2483b38e9526e2e99f24389095f164736f6c63430008070033",
					"opcodes": "PUSH1 0x80 PUSH1 0x40 MSTORE CALLVALUE DUP1 ISZERO PUSH2 0x10 JUMPI PUSH1 0x0 DUP1 REVERT JUMPDEST POP PUSH2 0x469 DUP1 PUSH2 0x20 PUSH1 0x0 CODECOPY PUSH1 0x0 RETURN INVALID PUSH1 0x80 PUSH1 0x40 MSTORE CALLVALUE DUP1 ISZERO PUSH2 0x10 JUMPI PUSH1 0x0 DUP1 REVERT JUMPDEST POP PUSH1 0x4 CALLDATASIZE LT PUSH2 0x2B JUMPI PUSH1 0x0 CALLDATALOAD PUSH1 0xE0 SHR DUP1 PUSH4 0x69DBB27B EQ PUSH2 0x30 JUMPI JUMPDEST PUSH1 0x0 DUP1 REVERT JUMPDEST PUSH2 0x4A PUSH1 0x4 DUP1 CALLDATASIZE SUB DUP2 ADD SWAP1 PUSH2 0x45 SWAP2 SWAP1 PUSH2 0x1BC JUMP JUMPDEST PUSH2 0x60 JUMP JUMPDEST PUSH1 0x40 MLOAD PUSH2 0x57 SWAP2 SWAP1 PUSH2 0x24F JUMP JUMPDEST PUSH1 0x40 MLOAD DUP1 SWAP2 SUB SWAP1 RETURN JUMPDEST PUSH1 0x0 DUP1 DUP3 PUSH1 0x40 MLOAD PUSH2 0x70 SWAP1 PUSH2 0x185 JUMP JUMPDEST DUP2 SWAP1 PUSH1 0x40 MLOAD DUP1 SWAP2 SUB SWAP1 PUSH1 0x0 CREATE2 SWAP1 POP DUP1 ISZERO DUP1 ISZERO PUSH2 0x90 JUMPI RETURNDATASIZE PUSH1 0x0 DUP1 RETURNDATACOPY RETURNDATASIZE PUSH1 0x0 REVERT JUMPDEST POP SWAP1 POP DUP1 PUSH20 0xFFFFFFFFFFFFFFFFFFFFFFFFFFFFFFFFFFFFFFFF AND PUSH4 0x55241077 PUSH1 0xA PUSH1 0x40 MLOAD DUP3 PUSH4 0xFFFFFFFF AND PUSH1 0xE0 SHL DUP2 MSTORE PUSH1 0x4 ADD PUSH2 0xCD SWAP2 SWAP1 PUSH2 0x234 JUMP JUMPDEST PUSH1 0x0 PUSH1 0x40 MLOAD DUP1 DUP4 SUB DUP2 PUSH1 0x0 DUP8 DUP1 EXTCODESIZE ISZERO DUP1 ISZERO PUSH2 0xE7 JUMPI PUSH1 0x0 DUP1 REVERT JUMPDEST POP GAS CALL ISZERO DUP1 ISZERO PUSH2 0xFB JUMPI RETURNDATASIZE PUSH1 0x0 DUP1 RETURNDATACOPY RETURNDATASIZE PUSH1 0x0 REVERT JUMPDEST POP POP POP POP DUP1 PUSH20 0xFFFFFFFFFFFFFFFFFFFFFFFFFFFFFFFFFFFFFFFF AND PUSH4 0x20965255 PUSH1 0x40 MLOAD DUP2 PUSH4 0xFFFFFFFF AND PUSH1 0xE0 SHL DUP2 MSTORE PUSH1 0x4 ADD PUSH1 0x20 PUSH1 0x40 MLOAD DUP1 DUP4 SUB DUP2 DUP7 DUP1 EXTCODESIZE ISZERO DUP1 ISZERO PUSH2 0x145 JUMPI PUSH1 0x0 DUP1 REVERT JUMPDEST POP GAS STATICCALL ISZERO DUP1 ISZERO PUSH2 0x159 JUMPI RETURNDATASIZE PUSH1 0x0 DUP1 RETURNDATACOPY RETURNDATASIZE PUSH1 0x0 REVERT JUMPDEST POP POP POP POP PUSH1 0x40 MLOAD RETURNDATASIZE PUSH1 0x1F NOT PUSH1 0x1F DUP3 ADD AND DUP3 ADD DUP1 PUSH1 0x40 MSTORE POP DUP2 ADD SWAP1 PUSH2 0x17D SWAP2 SWAP1 PUSH2 0x1E9 JUMP JUMPDEST SWAP2 POP POP SWAP2 SWAP1 POP JUMP JUMPDEST PUSH2 0x170 DUP1 PUSH2 0x2C4 DUP4 CODECOPY ADD SWAP1 JUMP JUMPDEST PUSH1 0x0 DUP2 CALLDATALOAD SWAP1 POP PUSH2 0x1A1 DUP2 PUSH2 0x295 JUMP JUMPDEST SWAP3 SWAP2 POP POP JUMP JUMPDEST PUSH1 0x0 DUP2 MLOAD SWAP1 POP PUSH2 0x1B6 DUP2 PUSH2 0x2AC JUMP JUMPDEST SWAP3 SWAP2 POP POP JUMP JUMPDEST PUSH1 0x0 PUSH1 0x20 DUP3 DUP5 SUB SLT ISZERO PUSH2 0x1D2 JUMPI PUSH2 0x1D1 PUSH2 0x290 JUMP JUMPDEST JUMPDEST PUSH1 0x0 PUSH2 0x1E0 DUP5 DUP3 DUP6 ADD PUSH2 0x192 JUMP JUMPDEST SWAP2 POP POP SWAP3 SWAP2 POP POP JUMP JUMPDEST PUSH1 0x0 PUSH1 0x20 DUP3 DUP5 SUB SLT ISZERO PUSH2 0x1FF JUMPI PUSH2 0x1FE PUSH2 0x290 JUMP JUMPDEST JUMPDEST PUSH1 0x0 PUSH2 0x20D DUP5 DUP3 DUP6 ADD PUSH2 0x1A7 JUMP JUMPDEST SWAP2 POP POP SWAP3 SWAP2 POP POP JUMP JUMPDEST PUSH2 0x21F DUP2 PUSH2 0x27E JUMP JUMPDEST DUP3 MSTORE POP POP JUMP JUMPDEST PUSH2 0x22E DUP2 PUSH2 0x274 JUMP JUMPDEST DUP3 MSTORE POP POP JUMP JUMPDEST PUSH1 0x0 PUSH1 0x20 DUP3 ADD SWAP1 POP PUSH2 0x249 PUSH1 0x0 DUP4 ADD DUP5 PUSH2 0x216 JUMP JUMPDEST SWAP3 SWAP2 POP POP JUMP JUMPDEST PUSH1 0x0 PUSH1 0x20 DUP3 ADD SWAP1 POP PUSH2 0x264 PUSH1 0x0 DUP4 ADD DUP5 PUSH2 0x225 JUMP JUMPDEST SWAP3 SWAP2 POP POP JUMP JUMPDEST PUSH1 0x0 DUP2 SWAP1 POP SWAP2 SWAP1 POP JUMP JUMPDEST PUSH1 0x0 DUP2 SWAP1 POP SWAP2 SWAP1 POP JUMP JUMPDEST PUSH1 0x0 PUSH2 0x289 DUP3 PUSH2 0x274 JUMP JUMPDEST SWAP1 POP SWAP2 SWAP1 POP JUMP JUMPDEST PUSH1 0x0 DUP1 REVERT JUMPDEST PUSH2 0x29E DUP2 PUSH2 0x26A JUMP JUMPDEST DUP2 EQ PUSH2 0x2A9 JUMPI PUSH1 0x0 DUP1 REVERT JUMPDEST POP JUMP JUMPDEST PUSH2 0x2B5 DUP2 PUSH2 0x274 JUMP JUMPDEST DUP2 EQ PUSH2 0x2C0 JUMPI PUSH1 0x0 DUP1 REVERT JUMPDEST POP JUMP INVALID PUSH1 0x80 PUSH1 0x40 MSTORE CALLVALUE DUP1 ISZERO PUSH2 0x10 JUMPI PUSH1 0x0 DUP1 REVERT JUMPDEST POP PUSH2 0x150 DUP1 PUSH2 0x20 PUSH1 0x0 CODECOPY PUSH1 0x0 RETURN INVALID PUSH1 0x80 PUSH1 0x40 MSTORE CALLVALUE DUP1 ISZERO PUSH2 0x10 JUMPI PUSH1 0x0 DUP1 REVERT JUMPDEST POP PUSH1 0x4 CALLDATASIZE LT PUSH2 0x36 JUMPI PUSH1 0x0 CALLDATALOAD PUSH1 0xE0 SHR DUP1 PUSH4 0x20965255 EQ PUSH2 0x3B JUMPI DUP1 PUSH4 0x55241077 EQ PUSH2 0x59 JUMPI JUMPDEST PUSH1 0x0 DUP1 REVERT JUMPDEST PUSH2 0x43 PUSH2 0x75 JUMP JUMPDEST PUSH1 0x40 MLOAD PUSH2 0x50 SWAP2 SWAP1 PUSH2 0xD9 JUMP JUMPDEST PUSH1 0x40 MLOAD DUP1 SWAP2 SUB SWAP1 RETURN JUMPDEST PUSH2 0x73 PUSH1 0x4 DUP1 CALLDATASIZE SUB DUP2 ADD SWAP1 PUSH2 0x6E SWAP2 SWAP1 PUSH2 0x9D JUMP JUMPDEST PUSH2 0x7E JUMP JUMPDEST STOP JUMPDEST PUSH1 0x0 DUP1 SLOAD SWAP1 POP SWAP1 JUMP JUMPDEST DUP1 PUSH1 0x0 DUP2 SWAP1 SSTORE POP POP JUMP JUMPDEST PUSH1 0x0 DUP2 CALLDATALOAD SWAP1 POP PUSH2 0x97 DUP2 PUSH2 0x103 JUMP JUMPDEST SWAP3 SWAP2 POP POP JUMP JUMPDEST PUSH1 0x0 PUSH1 0x20 DUP3 DUP5 SUB SLT ISZERO PUSH2 0xB3 JUMPI PUSH2 0xB2 PUSH2 0xFE JUMP JUMPDEST JUMPDEST PUSH1 0x0 PUSH2 0xC1 DUP5 DUP3 DUP6 ADD PUSH2 0x88 JUMP JUMPDEST SWAP2 POP POP SWAP3 SWAP2 POP POP JUMP JUMPDEST PUSH2 0xD3 DUP2 PUSH2 0xF4 JUMP JUMPDEST DUP3 MSTORE POP POP JUMP JUMPDEST PUSH1 0x0 PUSH1 0x20 DUP3 ADD SWAP1 POP PUSH2 0xEE PUSH1 0x0 DUP4 ADD DUP5 PUSH2 0xCA JUMP JUMPDEST SWAP3 SWAP2 POP POP JUMP JUMPDEST PUSH1 0x0 DUP2 SWAP1 POP SWAP2 SWAP1 POP JUMP JUMPDEST PUSH1 0x0 DUP1 REVERT JUMPDEST PUSH2 0x10C DUP2 PUSH2 0xF4 JUMP JUMPDEST DUP2 EQ PUSH2 0x117 JUMPI PUSH1 0x0 DUP1 REVERT JUMPDEST POP JUMP INVALID LOG2 PUSH5 0x6970667358 0x22 SLT KECCAK256 0xB2 RETURNDATASIZE DUP11 0xD7 REVERT 0x2A 0xC4 PUSH1 0xCE POP CODECOPY BALANCE 0xB7 0xD3 RETURNDATASIZE SWAP11 0xB6 PUSH14 0x4FB222599CD95E871C11485C7414 PUSH5 0x736F6C6343 STOP ADDMOD SMOD STOP CALLER LOG2 PUSH5 0x6970667358 0x22 SLT KECCAK256 POP 0xEA 0xB1 PUSH6 0x5502228EB8B9 0xB1 DUP3 PUSH20 0x92958AC5A2483B38E9526E2E99F24389095F164 PUSH20 0x6F6C634300080700330000000000000000000000 "
				},
				"gasEstimates": {
					"creation": {
						"codeDepositCost": "225800",
						"executionCost": "269",
						"totalCost": "226069"
					},
					"external": {
						"UseNewKeyword(bytes32)": "infinite"
					}
				},
				"methodIdentifiers": {
					"UseNewKeyword(bytes32)": "69dbb27b"
				}
			},
			"storageLayout": {
				"storage": [],
				"types": null
			},
			"userdoc": {
				"kind": "user",
				"methods": {},
				"version": 1
			}
		}
	}
}